:020000040000FA
:1000000000400020293000007930000079300000E5
:1000100000000000000000000000000000000000E0
:100020000000000000000000000000007930000027
:10003000000000000000000079300000793000006E
:10004000793000007930000079300000793000000C
:1000500079300000000000007930000079300000A5
:1000600079300000793000007930000079300000EC
:1000700079300000793000007930000079300000DC
:1000800079300000793000007930000079300000CC
:1000900079300000793000007930000079300000BC
:1000A00079300000793000000000000000000000FE
:1000B0000000000000000000000000000000000040
:1000C000164B002B00D1144B9D46402292029A1AE7
:1000D000924600218B460F461348144A121A03F029
:1000E00053FA0F4B002B00D098470E4B002B00D03B
:1000F00098470020002104000D000D48002802D080
:100100000C4800E000BF05F0F7FF2000290000F0D8
:1001100013F803F07AF9C046000008000040002000
:100120000000000000000000C0050020A00F00201B
:100130000000000000000000F0B54B4C0C22A5446C
:10014000002106A803F020FA24AF01AB079306971D
:1001500004F056FB03F0C2F8041E03D00023432131
:100160001A0012E080233A005B0002A901200293EA
:1001700002F0E0FF6B461C718023029E5B009B1B1C
:10018000029305D5230022004B21384804F054FC8B
:100190000C22724302A9BA18022002F0CBFF051EFE
:1001A00003D0230022004D21EFE76B465E71029BD6
:1001B000F61880235B009B1B029303D5030002000B
:1001C0005221E2E70C22724302A9BA18032002F07E
:1001D000B1FF041E03D02B002A005421D5E72122B1
:1001E0006B469B181E70029B013AF6186B469B18D3
:1001F0001E70082309AA02A90420029302F0DCFF62
:10020000002803D0230022006121BEE700F07AF924
:10021000002802D109A800F069F905F063F8144C30
:10022000200005F0A1F9051E03D0002372211A0059
:10023000ABE7200005F0A6F9041E03D02B002A002E
:100240007421A2E703F08EFA03A906A803F0ECFBE1
:10025000002803D023002200782196E7039B188909
:10026000059BC01803F0CAF86CF3FFFF586100004B
:10027000C0000020012110B54942074804F00CFDE0
:10028000002807D0092805D000236C211A00034854
:1002900004F0D2FB10BDC046C0050020686100001C
:1002A00010B5074804F0AEFC002807D0092805D097
:1002B000002375211A00034804F0BEFB10BDC046A0
:1002C000C00500206861000010B50400FFF7D2FFF0
:1002D0006468FFF7E5FF200010BD10B50400FFF7CC
:1002E000C9FF200000F0ACFB0400FFF7D9FF20009D
:1002F00010BD70B50D000400FFF7BCFF2900200001
:1003000000F082FB0400FFF7CBFF200070BD70B54A
:1003100005000E00FFF7AEFF01F0B0FB0D24002832
:1003200004D03100280000F045FB0400FFF7B8FFBF
:10033000200070BD70B50500FFF79CFF01F09EFB2B
:100340000D24002804D00021280001F09DFC0400A9
:10035000FFF7A6FF200070BD70B505000E00FFF787
:1003600089FF01F08BFB0D24002804D03100280008
:1003700001F03EFC0400FFF793FF200070BD70B554
:100380000500FFF777FF01F079FB0D24002803D06B
:10039000280001F01BFC0400FFF782FF200070BD65
:1003A00070B50D000400FFF765FF2900206800F01C
:1003B00005FF0400FFF774FF200070BD70B50D004D
:1003C0000400FFF757FF2900200000F039FC04006B
:1003D000FFF766FF200070BDF8B505000E0017009E
:1003E000FFF748FF01F04AFB0D24002805D03A0032
:1003F0003100280001F0C2FF0400FFF751FF200088
:10040000F8BDF8B50D0016001F000400FFF732FF1D
:100410003B0032002900200000F022FC0400FFF71E
:100420003FFF2000F8BD10B5041E08D0FFF722FFE3
:10043000200000F039FC0400FFF732FF200010BD5F
:10044000F7B506000F001500FFF714FF01F016FBCB
:100450000D24002808D03A00310001A800F07CFBF0
:10046000041E01D1019B2B60FFF71AFF002C01D065
:1004700000232B602000FEBD10B50400FFF7FAFE3C
:10048000002C02D02368002B05D1002305491A0057
:10049000054804F0D1FA5C68FFF702FF200000F085
:1004A00001FD10BD2D02000068610000F8B50700D5
:1004B0000C0015001E00FFF7DDFE002F02D038688B
:1004C000002805D1002307491A00074804F0B4FAB0
:1004D00033002A00210000F0F1FE0400FFF7E0FEE7
:1004E0002000F8BD130200006861000010B5040090
:1004F000FFF7C0FE200001F03FFE0400FFF7D0FE32
:10050000200010BD70B500F033FA00F01DFA31483C
:1005100004F06EFB0A24002859D10C252E4E3068B9
:1005200004F0E0FA2D4CA068684304F0CFFA306084
:10053000002801D105244AE0294E306804F0D2FA9F
:1005400018202368584304F0C1FA30600028F1D025
:10055000244E306804F0C6FA6068684304F0B6FAC6
:1005600030600028E6D0204D286804F0BBFA242033
:100570002369584304F0AAFA28600028DAD01B4DFA
:10058000286804F0AFFA6369580104F09FFA286004
:100590000028CFD0164D286804F0A4FAE068C00007
:1005A00004F094FA28600028C4D005F077F9114CC3
:1005B000200005F091F922000F49104805F078F964
:1005C00001F0C0F9041E02D10D4805F0D3F9200056
:1005D00070BDC046C0050020140B0020600B002039
:1005E0001C0B00205C0B0020980A0020180B002038
:1005F000580B0020CC050020200B00206F6100006C
:100600007461000010B50400A16900290CD00B68CA
:100610004A68002B01D05A6000E0E2614A68034852
:10062000136004F0BCFAEFE710BDC046D80A002002
:1006300010B5041E05D0FFF7E5FF2100014804F0C6
:10064000AEFA10BD780A002010B5074804F094FAFD
:10065000041E06D02422002102F096FF2300183346
:10066000E361200010BDC046780A002010B505489F
:1006700004F082FA041E03D02022002102F084FF3D
:10068000200010BDD80A002010B5FFF7EFFF0028AA
:100690001AD10E4B5B685B681A68002A0FD0936909
:1006A000002B0AD01000FFF7ADFFFFF7DFFF002897
:1006B0000AD1030002003F2103E05368EBE7130077
:1006C000E621034804F0B8F910BDC046D000002070
:1006D000B46100008369002B01D10B6007E0DB6986
:1006E0000B60C3695B6819680B8BC969CB18136011
:1006F0007047000010B50B4A1368002B10D09C689F
:100700001968A04201D00B00F7E75868002901D012
:10071000486000E050605A6818001160FFF788FFD9
:1007200010BDC046D0000020F8B507000E00294DCE
:100730002C68002C04D0A3689E4246D02468F8E7B9
:10074000FFF782FF041E1DD16B685B6818680028E4
:1007500003D123002200802111E003684268002BAE
:1007600001D05A6000E06A6042681360FFF760FFE2
:10077000FFF76AFF041E05D1030002008821164816
:1007800004F05AF924220021200002F0FDFE20008E
:100790003100083000F01EFD061E10D12100A068B7
:1007A000203100F0E7FC061E09D12B682360002BE6
:1007B00001D05C6000E06C602C60656005E02000AA
:1007C000FFF736FF00233B6001E000263C6030006D
:1007D000F8BDC046D0000020B4610000084B10B541
:1007E0001C68201E0AD0FFF70DFF2000A16808300A
:1007F00000F0F0FC002801D12468F2E710BDC046EB
:10080000D0000020002A06D000230B60C3694B6093
:100810001960C16109E083690B60002B01D0596048
:1008200000E0C1618161183048607047F0B5050093
:100830002B6A8BB00F0001920620002B00D17FE0C5
:1008400004AA03A92800FFF745FF049E002E0FD03D
:10085000039BBB4204D9AB695A69DE6900920BE085
:10086000BE4205D9EB695B681C68A368009304E08D
:10087000AB682E6A1B6900930024039B9E421AD822
:10088000002C06D00023AA211A00FF312D4804F0C5
:10089000D3F8FFF7F9FE00990400083002F09EF843
:1008A00000284DD1238B0200F61AE66121002800B2
:1008B000FFF7A8FF01E0002C02D0E669636909E0B8
:1008C000009905A802F08AF8002839D102AB9B8B69
:1008D000F61A089B0093BE422CD8002C24D1FFF7B7
:1008E000D3FE0300040005AA083383CA83C303CAE6
:1008F00003C3AB69E661002B0ED0EB695A6812683E
:100900009268002A08D00099914205D100226360C4
:1009100022601C60EC6107E02800FFF773FE0022F4
:1009200021002800FFF76EFF0198002808D004601E
:10093000002005E0002CA0D063685B681C689CE781
:100940000BB0F0BDB461000010B5084A1068002873
:100950000BD003684168002B01D0596000E0516062
:1009600042681360FFF764FEEFE710BDD00000207F
:100970000F4B1A68002A01D164321A605A68002AA3
:1009800001D164325A609A68002A01D104329A6017
:100990001A69002A01D104321A615A69002A01D168
:1009A00040325A61DA68002A01D10432DA607047B5
:1009B000600B0020F7B50F0001A901F0FDF804005D
:1009C000061E1DD1019B0434586800F06BFA002804
:1009D00016D00C4804F0D0F8051E10D008223100C3
:1009E00002F0D2FD2800019B310008C01A7D0132BF
:1009F0001A75220002F0C8FD34003D6000E00524B5
:100A00002000FEBD9C0A002070B5040040680E0066
:100A1000002802D123681D6904E0C56800F012FCBB
:100A200000280BD16560002D02D13560062005E05D
:100A300000202B7D043401332B75346070BD000021
:100A400010B5041E01D1002014E04068002805D133
:100A5000206800F0F7FB00280CD104E000F0F2FB66
:100A60000028F5D006E02100034804F098F800289B
:100A7000E9D00A2010BDC0469C0A0020F0B58BB01A
:100A8000050003A8009101921E0000F03FFB041E28
:100A900054D102AB0198DF1C04AA3900143000F0D5
:100AA000ABFE041E4AD11422FF2105A802F06CFD02
:100AB000254B264A0593002E00D1254A1368591C60
:100AC00011600693002307939D4201D1013B00E092
:100AD0006B6808936B4605AE1B7900993000737400
:100AE00002F057F83A78049B0099300000F02AFB96
:100AF000041E23D1039C736804996360387800F066
:100B000059F901230399A0600B75002D05D0280029
:100B100000F0E6FC041E11D108E07368002B05D03C
:100B20002B002A0079210B4803F086FF039800F080
:100B30001BFA109B039A00201A6003E0039800F050
:100B400083FA20000BB0F0BDC08B5F92780C0020C0
:100B5000840C0020C1610000F0B58FB003900F003D
:100B600016000420930767D00C23134004D0042000
:100B7000B20761D50C2B5FD0304C200003F0FCFF96
:100B8000059405000520002D56D00C2200212800D8
:100B900002F0FAFC390009A800F0C4FF07AA08A96E
:100BA00009A800F0C5FF040006280FD1099B022BFD
:100BB0003DD11E423BD00798002838D00C9B0B99A2
:100BC00004936B461A7C0095002314E000282ED174
:100BD000089B586800F066F9002827D133070FD525
:100BE000380000F0F3FF0C9B0B9904936B461A7CC2
:100BF000230007980095FFF741FF041E17D101E07D
:100C0000089B2B600423334006D0291D286800F080
:100C1000D5FA041E0BD100E06B602A680020137D1A
:100C200001331375039B2E721D6005E00424290017
:100C3000059803F0B4FF20000FB0F0BDBC0A0020FF
:100C400037B504000D00006801A900F0B7FA031ED3
:100C500005D1019A0330AA4201D3180065603EBD58
:100C6000F0B585B01D0004000E00170000F006FF6F
:100C700003000D20002B14D0237A0138DB0710D598
:100C800003AB009332003B006168206800F0F0FC89
:100C9000002806D16368039A9B186360002D00D07A
:100CA0002A6005B0F0BD000070B50500006800F0D6
:100CB000C9FA041E06D12900034803F070FF00287A
:100CC00000D00A34200070BDBC0A002070B50E4C64
:100CD0002478844205D8002331211A000B4803F000
:100CE000ABFE0B4C00012468CD1824186668032065
:100CF000B54207D820680918E07B02F003FB431EC9
:100D00009841400070BDC046100B0020CD6100002E
:100D1000300B002070B5114C2478844205D8002394
:100D200057211A000E4803F087FE0E4C000124687C
:100D3000CD18241866680320B5420DD8A668B142C4
:100D40000AD320680918E07B02F0F9FA03000220B8
:100D5000002B01D11800A56070BDC046100B00200B
:100D6000CD610000300B0020F7B50D001E00089F7C
:100D700000900192002F19D080233C005B009F421D
:100D800000D91C0023000A4A29000098FFF79EFFA3
:100D900000280CD12300064A31000198FFF7BAFF62
:100DA000002804D12D1936193F1BE3E73800FEBD9A
:100DB000780B0020064B10B5994205D90023A321DA
:100DC0001A00044803F038FE0006084310BDC04670
:100DD000FFFFFF00CD610000030E0002000A0B7050
:100DE00010607047F0B5124E89B033680701DC1906
:100DF000019105006268E07B216802F0BDFA030002
:100E00000220002B12D1A36002A9200001F0B0FC47
:100E1000019A1823002A04D0FF223368DB199A8133
:100E2000172302AA00212800FFF774FF09B0F0BDC4
:100E3000300B002070B5184B86B01B7805000E00F3
:100E4000834205D8002325211A00144803F0F4FD3D
:100E500018236A460021FFF739FF041E18D1104BF2
:100E600068461A682B01D3189E8101F075FC002892
:100E700004D121002800FFF7B5FF08E06B461722D8
:100E8000DE756A44012317212800FFF743FF0400A1
:100E9000200006B070BDC046100B0020DA610000D3
:100EA000300B00200023024A82425B411800704749
:100EB000FFFFFF0FF0231B06C3180020014A9A42D0
:100EC00040417047FFFFFF6FC043C00F70470000F5
:100ED00080231B06C3180020014A9A4240417047F4
:100EE000FEFFFF7F0C4BC2B21B6892009A1830B510
:100EF000146800212300002B0CD05D68A84206D1A5
:100F0000002907D0186808601C60136002E019000F
:100F10001B68F0E7180030BD800C002010B50400FD
:100F2000FFF7D2FF021E04D103005F21034803F044
:100F300083FD2000FFF7D6FF10BDC046E86100002A
:100F400080231B06C218064B10B59A4205D9002310
:100F50006A211A00034803F06FFDFFF7C3FF10BDBD
:100F6000FEFFFF7FE8610000044A037912689B00DE
:100F7000D3181A68026018607047C046800C0020C1
:100F8000094A037912689B00D3181A68904202D16B
:100F900002681A6006E01368984201D01A00FAE766
:100FA000036813607047C046800C002010B50C4CDD
:100FB000206802F0D5FA8020C00002F083FA0523F1
:100FC0002060002809D0002380221900D200206868
:100FD000C15004339342FAD10023180010BDC0461B
:100FE000800C0020F7B517001D00CA18037B0C0009
:100FF0009A4205DD00230B491A000B4803F01CFD43
:101000006B46DE1C0368310001AA9868FFF7E4FE16
:1010100001993078143109192B003A000191FFF73A
:1010200055FEFEBD3B020000F461000010B505480E
:1010300003F0A2FD041E03D01822002102F0A4FA3E
:10104000200010BDF40A002010B5041E0DD0406829
:10105000FFF73AFF021E04D103003821034803F0D2
:10106000EBFC2100024803F09AFD10BDF461000082
:10107000F40A002070B5027D04000D00002A03D19F
:101080003C211300FF3116E00026013AD2B202756E
:10109000B24234D14068FFF70DFF061E28D06068C9
:1010A000FFF708FF002818D06068FFF703FF021E53
:1010B00008D10300EE21134803F0BEFC01F0CAFC86
:1010C000002803D120690028F8D106E00600012895
:1010D00015D1002D13D0002323612000FFF70AFB58
:1010E0002000FFF74DFF2000FFF7AEFF002606E0CF
:1010F0002000FFF745FF044B1A681C602260300097
:1011000070BDC046F4610000E405002013B5040082
:10111000FFF78CFF01A9206000F04EFB0028F7D1FB
:10112000019816BD10B514231400FFF7CFFD031E60
:1011300005D1034A21680930914200D1180010BD41
:10114000C08B5F92F8B515001C0007000E0002006E
:10115000142321002800FFF7DDFD002808D17B7C47
:10116000002B05D02100320014312800FFF7D2FDFA
:10117000F8BD000030B5050087B040680C00FFF7EF
:1011800099FE021E04D1030091210B4803F054FC88
:1011900000232360296900290BD001AD280001F04C
:1011A0001DFC002806D12B8A2268E968D318236029
:1011B000F1E7080007B030BDF461000013B50C0082
:1011C000010001A8FFF7B0FA002802D1019B1B6AB9
:1011D000236016BDF0B589B06B460F00DD1D02AA75
:1011E0002900040003AEB868FFF7F6FD2878320046
:1011F0000299FFF797FF031E1AD1B268F0682760C3
:101200006260421C01D1A36002E0FFF787FEA0608C
:10121000737C2373032B03D80020834208D000E0A3
:101220000323220002990D3214312878FFF74EFD76
:1012300009B0F0BD8368002B01D0586801E001209F
:101240004042704710B50021FFF714FF10BD0000A9
:1012500070B5826888B00500002A05D1A02113006E
:10126000FF31134803F0E8FB6B46DE1D02AA310094
:10127000142000F0C1FA002818D10E4A6B680392BE
:101280002A68013352686B60059301230A4D03AC51
:101290005B426074290020000492069301F079FCFF
:1012A0003278029B29002000FFF74CFF08B070BD88
:1012B000F4610000C08B5F92B56200007FB50D0045
:1012C000010068461400FFF785FF00280ED16B4629
:1012D0001B7B6E1EAB4200D21E0033002200002199
:1012E0006846FFF77FFE002800D1A05504B070BD0E
:1012F00070B584680500002C03D1230022000F493B
:1013000007E06068FFF7CEFD021E05D1AB210300A8
:1013100089000B4803F090FB23692A68934202D1AD
:10132000DB68236106E0D9688A4201D00B00FAE746
:10133000D268DA6000222B68DA6070BDAB02000070
:10134000F46100008368F7B504000F001600002B5D
:1013500001D0FFF7CDFF23685868FFF7A3FD0028F1
:101360002FD025682800FFF70BFE1A4C2368256054
:101370002B602568002D2AD06868FFF793FD021EB8
:1013800005D1BB2103004900134803F055FB236836
:1013900028691B68236000280FD0C3680193002EC2
:1013A00004D03368834201D1019B33603900FFF7D9
:1013B00061FE00280CD10198EDE72800FFF744FEFC
:1013C000D7E739002068FFF755FE002800D100203C
:1013D000FEBDC046E4050020F4610000F0B585B014
:1013E000019003910292057B1E00954200DD1500DD
:1013F0002C00032D00DD03240198220003990D30F9
:1014000002F0E3F830603068002816D1AC4216DAFA
:101410002F1B802F00D98027E1B23B000B4A019897
:10142000FFF7E0FD00280FD1039B3A001919074888
:1014300002F0CBF8E4193060E5E7002004E0019BFE
:10144000029A1B7B9B1A336005B0F0BD780B00201D
:10145000F0B585B001900291037B0F7B1600BB4273
:1014600000D21F003C00032F00DD032402990198E5
:1014700022000D310D3002F0A8F8306030680028ED
:101480001FD1A7421FDD3D1B802D00D98025E3B26F
:101490000393114A2B00E1B20198FFF7A3FD002846
:1014A00017D12B000D4AE1B20298FFF79BFD0028EF
:1014B0000FD12A000949084802F087F86419306002
:1014C000DCE7002005E0019B029A1B7B127B9B1A44
:1014D000336005B0F0BDC046780B0020F80B00204B
:1014E000F0B506008BB040680C00FFF7DBFC021E75
:1014F00002D10300194921E0210002A8FFF76AFE8A
:10150000002828D13569070011E0290006A8FFF757
:1015100061FE00281FD101AA06A902A8FFF798FFC3
:10152000002818D1019B002B0BDB2F00ED68002D4C
:1015300007D0A542E9D100231A000949094803F060
:101540007BFA002F03D13369E360346102E0FB686A
:10155000E360FC6000200BB0F0BDC04681020000DB
:101560008A020000F4610000F0B505008FB0406809
:101570000F000092FFF796FC3900002810D00029D8
:1015800008D08D4206D009A8FFF724FE002805D117
:101590000B99F4E704248D4263D001E0040060E07D
:1015A00005AE29003000FFF715FE041E59D1B368BF
:1015B0009F420FD0002B02D03000FFF799FE002F82
:1015C00001D1B76006E005993800FFF789FF041ED6
:1015D000F7D046E0009B002B04D0180001F0EDFF8F
:1015E000019013E002ABDC1D210004AAA868377B40
:1015F000FFF7F2FB0499207814313B001A4AFFF7F9
:1016000065FB041E2DD1184B01970093019802AB86
:10161000DF1D143080B204AA390000F0EDF8041E7A
:101620001FD1124B300009936B6809AC0A937368A1
:1016300001330B93FFF7FEFD6B461B79E0600099C9
:101640002000637401F0A5FA20003A78049B009909
:10165000FFF778FD041E04D138780499FFF7AAFB40
:10166000A86020000FB0F0BD780B0020C08B5F9207
:10167000F0B585B00E00141E019307D10A9B002B14
:1016800001D1002047E00A9B1A60FAE7010002A896
:10169000FFF74AF800283ED1029BA4191B6A9C421E
:1016A00000D91C00A31B0093002327000393A51B54
:1016B000002D2AD0039B002B07D003980021C3697B
:1016C0009E420AD9F11A89B207E0791E03AA02984C
:1016D000FFF7ACF80028F0D01DE0028BD318521AA7
:1016E00092B2A34202D9E31AD21892B2019BAD1A68
:1016F0005B190830BF1A01F0C8F900280BD1039B11
:101700005B685B681B680393D2E70A9B002BB8D029
:101710002800009A1A6005B0F0BD10B50A0000213B
:10172000FFF710FE10BD10B50A000121FFF70AFEF9
:1017300010BD10B50400FFF78BFD002803D1010098
:101740002000FFF7EAFF10BD1FB5094B0120196803
:1017500000290AD04B68002B07D16846FFF73AFDF5
:10176000002802D10298431E984105B000BDC04632
:10177000540B002010B50D4B01201B78FF2B13D00C
:101780000B4A1B011168CB185C680A4B18780023C0
:10179000834206DA1A018A185268944203D301334D
:1017A000F6E7002000E0012010BDC046940A0020AA
:1017B000300B0020100B002070B50D000C4C0028E1
:1017C00003D000202070086010E00A4B22781B78BC
:1017D000013B9A4202DB05230B6007E001F0ECFAC3
:1017E00023782860013323704342584170BDC046BE
:1017F000E8050020100B0020F0B51F4B85B01B78CA
:101800000D0000931D4BFF271B7816009C460023FC
:101810001B4A040010680192009A934210DA634553
:101820000CD01A003A401201821891685268521A7C
:10183000A24203D3316000202B701BE00133EBE7A1
:1018400002ABDF1D3900200001F0CEFB021E11D1DA
:101850003978019F0B013F68FB189F685B68DB1BB1
:101860009C4202D83760297004E00300EA21054851
:1018700003F0E2F805B0F0BD100B0020940A002040
:10188000300B00200162000070B5041E094D04D128
:10189000286803F027F92C6007E00101286803F0AD
:1018A0002BF905232860002802D0034B1C7000236D
:1018B000180070BD300B0020100B002030B5134B0A
:1018C00001001C78124B00221D6801235B42A242DA
:1018D00007DA100128184068834200D9030001325A
:1018E000F5E71A00303A012091420ED8183BC34068
:1018F0000848183B084A834201D980231B01138002
:10190000138800208B4200D2118030BD100B0020C4
:10191000300B0020FF070000500B002070B5074D72
:10192000074C2900200000F0AFF9002805D00B2853
:1019300003D12900200000F03FF970BDB80A002053
:101940000D62000037B5FEF7FFFF314B314C0093BD
:10195000314B0C221B68A168304803F0DBF80028EB
:1019600001D00A2452E02E4B182200932D4B2168FF
:101970001B682D4803F0CEF80028F2D12B4B0C2227
:1019800000932B4B61681B682A4803F0C3F80028BA
:10199000E7D1294B24220093284B21691B68284852
:1019A00003F0B8F80028DCD1264B20220093264B08
:1019B00061691B68254803F0ADF80028D1D1244B9C
:1019C00008220093234BE1681B68234803F0A2F828
:1019D0000028C6D1FFF7EAFA041E17D11F4D286868
:1019E00003F080F8FF221E4B2C601C701D4B1C6006
:1019F0001D4B1C601D4B1A7080221D4B52051A6036
:101A000080221C4B12061C601B4B1A6020003EBD3E
:101A100019620000600B0020140B0020BC0A00209B
:101A2000286200001C0B0020F40A00203E62000027
:101A30005C0B0020340B002054620000980A002048
:101A4000780A00206A620000180B0020D80A0020E3
:101A500080620000580B00209C0A0020300B002000
:101A6000100B0020540B0020B80A0020940A00201C
:101A7000840C0020780C00207C0C0020024B18689D
:101A8000431E98417047C046540B0020F0B5040037
:101A90000D0016001F0087B0002C14D0210002A8F2
:101AA000FFF798FB002812D101AB3200290002A8F1
:101AB000FFF794FC00280AD10198002801D13C606E
:101AC00005E0002801DD062001E0E468E4E707B056
:101AD000F0BDF7B507680400022F01D1042020E013
:101AE000436805692F215E193000019301F054FD10
:101AF000002807D1002FF1D002233000236001F02D
:101B00005CFD04E001232360019BC01A401B80237D
:101B10005B009842E2DCE060013040192061002067
:101B2000A660FEBD002341600360036170470000B2
:101B30000023F7B505000F0016000B609A4200D095
:101B4000136001932800019CFFF7C3FF00282BD1ED
:101B50002B68012B02D0022B12D0F3E7EA68002C8D
:101B600004D1002A22D1134B1B68EAE7002AE9D0EE
:101B700001ABA9682069FFF789FF0028E2D00CE0DB
:101B80000623002C13D0EA68002A01D1019404E056
:101B900001ABA9682069FFF779FF019B3B60030057
:101BA000002E04D0346002E0030000E00623180099
:101BB000FEBDC046540B00207FB50022029001A854
:101BC00001920592FFF7B4FF07B000BD7FB501A9F0
:101BD000FFF7F2FF002808D1019902A8FFF7FAFAEF
:101BE000002802D102A8FFF7A4FD07B000BD000045
:101BF000002310B590B00C000C9005AA03A90BA807
:101C00000B930F93FFF794FF002838D10B900F90A0
:101C100006AA04A90BA80C94FFF78AFF002802D09B
:101C200006281ED02BE0039B5868FFF73BF9049B66
:101C300004005868FFF736F9844201D004201EE002
:101C4000049907A8FFF7C6FA002818D107A8FFF7DC
:101C500070FD002813D10D9A06990398FFF784FCB4
:101C60000DE0069A002A05D118211300FF3105481E
:101C700002F0E2FE0B9B0193022BDFD1EBE710B0E9
:101C800010BDC0468E620000002330B58DB005AD9A
:101C900008900C0006AA290007A807930B93FFF7EA
:101CA00047FF0B23002818D00300062815D1079AF8
:101CB0000392022A11D1069800280ED00A9B099996
:101CC00003936B461A7B01230095FEF7D7FE031E94
:101CD00003D1002C01D0059A226018000DB030BD50
:101CE00070B505000E00FFF7A1F904000520002CD7
:101CF0000CD065600021FA30FFF75CF80025A06089
:101D000025752000FFF730F92800346070BD000011
:101D1000AA4A03011268F0B5D718182397B00590A6
:101D2000BB606B46BC681E7D08AA042321003000FE
:101D3000FEF7CCFF002821D1089BA14A93420FD087
:101D40005A1C00D130E19F4A0125934200D02CE17A
:101D5000022310AA210030000D9300F097FD06E049
:101D6000012310AA210030000D93FFF7DBF90028B2
:101D700004D10DAB1E710F94019004E00190019B02
:101D8000072B00D917E1019804F01CF90B000B0197
:101D90001501080015011501150108000023019324
:101DA00009E10D9B0DAC0493012B03D0022B00D154
:101DB00085E0D4E0237910A80293A36802991A0061
:101DC000039300F0C9FE051E00D0D7E02069FFF79D
:101DD000A5F8061E40D043682269934204D0D8215A
:101DE0002B002A00490087E0037D002B01D1012050
:101DF00010E0010008A8FFF7EDF9002808D1099BC1
:101E000062699342F3D39D1A6A426A41019201E0EA
:101E100001902800019B002B00D0AFE0002840D0AB
:101E20001900FF20B468FEF7C5FF84420DD03100D1
:101E300008A8FFF7CFF9002800D09FE00A9B019384
:101E4000002B02D008A8FFF753FA03990298FEF777
:101E5000B1FF0024B0600FE0FFF7E8F8061E00D1E4
:101E60008CE02369039943600298FEF7A3FFB060FA
:101E70003000FFF779F8049C012333751398431C55
:101E80000AD0FFF74BF8079000286CD03100079874
:101E9000FFF726FB00286CD17368002B01D14A4B59
:101EA0001E607068FFF706F87368484A002800D182
:101EB000474A11688B4261D3013313605EE0267993
:101EC000A36831001A0010A8019300F020FE00283A
:101ED00054D12069FFF734F8051E17D0010008A877
:101EE00000F052FD021E49D1089B21695B688B42BC
:101EF00005D0962103008900364802F09DFD099B1C
:101F0000626993423AD2280000F0A4FD00F08EFCF2
:101F1000051E33D02369019943603000FEF74AFF64
:101F2000A8602800FFF720F82B4A236911688B422C
:101F300001D301331360294B0DAC228C19889142D7
:101F400000D21A80A069FEF7E9FF0790002815D19A
:101F500007A9A069FFF7C4FE002828D10EE00023DE
:101F60001F491A00C8E707A91398FFF7B9FE002810
:101F70008CD0002C02D03000FFF766F80D9A0DAB24
:101F8000012A04D0022A05D11B8C183306E05B7F9E
:101F9000143303E0002313491A00ADE7BA68D318DD
:101FA000BEE6BB680133BBE607250195E7E62800DE
:101FB00000F04AFCE2E7019817B0F0BD300B0020BA
:101FC000C08B5F92B923BA53540B0020840C0020BD
:101FD000780C00209A6200007C0C0020EA050020AA
:101FE000E7020000370300000023F0B59BB0009328
:101FF0005F4B1E68009BF6183468002C00D1AAE0E5
:10200000236860680393FEF75FFF002800D1A0E01B
:102010006068FEF747FF002847D0257D002D44D19A
:102020002369002B41D0534912A801F0BFFA12A82E
:1020300001F0C3FA12AB1B180193636829009C4698
:102040002A002B006046000FC5B2002802D1072AE3
:1020500005D103E02F005737092804D80123303574
:102060002F00002B03D0019B5F54012301316046F8
:10207000013200018446082AE4D10023019A12A803
:1020800053540DA9FFF700FE002808D00B280AD1F1
:1020900005E000220D99FFF767FA002803D12069B7
:1020A0000028F6D101E000285FD1237D002B02D16A
:1020B0000133237531E06368002B06D16068FEF7B9
:1020C000F9FE002845D025691EE0210009A8FFF788
:1020D00081F800281ED10B9B002BEFD11DE002AB35
:1020E000DF1C04AA3900A868FEF776FE387812AA29
:1020F000049900F0CBFB00280AD129000DA800F0BC
:102100006DFC002804D1109D002DE8D1280001E0CD
:10211000012802D000281CD027E00021FF20A5685C
:10212000FEF748FE854206D11022002105A801F0E5
:102130002BFA059405E0210005A8FFF74BF80028CD
:1021400013D103A905A8FFF7EEFA00280DD13368D3
:102150000393039C51E7009B043300931A008023F0
:10216000DB009A4200D043E720001BB0F0BDC04620
:10217000800C0020A9620000F0B591B00500FFF7C7
:10218000E1FB002800D0E9E0754A764BAA181880D8
:10219000009201936B68002B1DD0009BAB4200D1D5
:1021A000B1E00AAE287A18233200296801F0AAF8B3
:1021B000002800D0A9E0300000F0B2FA002808D0D2
:1021C000F37DFF2B00D0A5E0674B1B78FF2B00D1E0
:1021D000A0E00C35DEE7644B1A780093FF2A46D165
:1021E0000A2102ABC91804A800F0E8FA041E3AD18B
:1021F00005005E4B1B685C59002C1CD002ABDF1D38
:1022000005AA3900A0682668FEF7E6FD0A2302A9A0
:102210005B183A781B889A420BD16068FEF758FE2B
:10222000002805D0200000F015FC041E01D01AE0A3
:1022300020753400E0E780230435DB009D42D8D1CF
:1022400004AB1888FFF764FD041E0CD10A2502AB0D
:10225000ED1828780121FEF7C5FD041E03D12B8857
:10226000009A137003E0062C50D1053C4EE0FFF7B6
:1022700081FA041E4AD1FFF767FA041E46D1FFF720
:102280004DFB041E42D1394B1B681D59002D2AD02D
:102290002B6868680093FEF717FE061E21D12900FF
:1022A00005A800F09BFB071E03D033003200E52198
:1022B00014E0079E3369002B0ED05968280000F007
:1022C00041FB002808D006280BD0002809D01E2189
:1022D0003B003A00FF3101E0356102E0244802F0A2
:1022E000ABFB009DD2E780230434DB009C42CAD1C3
:1022F000FFF77AFE019B1888FFF7E0FA0400280038
:10230000002C03D12AE0042400E00224FFF71AFB8A
:10231000200023E0174B1F78781CC0B2FFF7B4FAF7
:10232000041EF3D1144B3A011B689B182A681A60EB
:102330006A685A602A7ADA73727D9A73F27D9A819A
:10234000F27DFF2A04D1E83A9A60074B1F7040E7FC
:10235000182238009A60FFF7DBFC3AE711B0F0BDB5
:102360000C0C0000EA050020940A0020800C0020DC
:102370009A620000100B0020300B0020F0B5A3B0D3
:1023800008910692037A06000C279B0700D4C3E14C
:10239000002A01D10027BFE1016812A8FEF7C4F9A5
:1023A000002800D0B7E1337A5B0702D5129B1B6A85
:1023B0007360069B002BEDDDCA4B069A1B880393C6
:1023C0009A4202DC6A46128B039272683168079265
:1023D000039A9A4204D9002320211A00FF3199E080
:1023E00013A8FEF7A1F9071E00D085E1139D079AF7
:1023F0002B6A9A4248D116A800F03CFA169B002B93
:1024000040D0AB68B84A0293B84B1CAC1C9313681D
:10241000A760591C6360029B11605B68E3600493D2
:10242000029B1B69002B01D1013B00E05B6823612B
:102430006B469B8908992000A38200F082FB17ABB2
:1024400015AA0899200000F031FA0490071E00D068
:1024500052E1169F63687B600EAB1799187FFEF7F9
:10246000A9FCB8601698FEF77FFD169A029B28001B
:102470001A612A6A039B99182962049A0139FEF7A6
:10248000D5F93BE1052747E10799039A8C46624459
:10249000059214900C90934201D2D31A0C93149B82
:1024A000002B09D01499079BCA69002493420DD9C7
:1024B000079B9C1AA4B209E0059B14AA591E139805
:1024C000FEF7B4F90028EDD0070015E10B8B181BBF
:1024D00080B2029005989B18984204D0C31A0298C3
:1024E000C3189BB20293824B17AD1B6828000F9351
:1024F000079BD21A13190A938B681900099300F0ED
:102500006DFA002800D0D0E02F8ABC4205D9030024
:1025100002007021774802F08FFA029B0490E318C2
:10252000BB4204DC029B3F1BFF1ABBB204930A9A16
:102530000E259446089B17A863440B934368049A9E
:1025400001334360029B1CA9E318D318038200F0F7
:10255000D9F90EABED18099B15AA98682900FEF76A
:102560003BFC2B781CA80D93159B0E9300F0C8FA2A
:1025700016AB1880002C0CD00E9A00931832230052
:102580000D9900F099FA00282BD125001835ADB22D
:1025900000E0182516AF3888029A0B9902F08EFEDB
:1025A000029B38805D19049BADB2002B0BD00E9BB3
:1025B0000097EA180D99049B00F07EFA002810D1CC
:1025C000049B5D19ADB21CAA938A18339D4203D0B7
:1025D000002346211A009DE716AB1B880027D382F3
:1025E00002E0071E00D097E04C220F250EABED183D
:1025F0009B18188816AA183080B22900FFF7FCF83B
:10260000002852D1287818231CAA1699FEF782FBBD
:1026100000284AD1002C10D02A78169B15990E302C
:102620000EAD40190078183318310094FEF79CFB6A
:1026300000283AD11834A4B200E018240F25169BC4
:102640000B9AE1180EABED182878029BFEF762FB9F
:1026500000282AD1029B1C19049BA4B2002B11D084
:102660002A780E300EAD4019169B1599049D0078FE
:10267000E31861180095FEF777FB002815D1049B3D
:102680001C19A4B217AB1B8A18339C4203D0002339
:10269000BF211A003EE70F230EAA9B18187816993F
:1026A000FEF788FB099B986001E0071E34D1059B6B
:1026B000029A9B1A05930E4B0F9A1B689A4201D0FF
:1026C000149704E0149B5B685B681B6814930A9B77
:1026D000002B00D0E3E6139B0C9A196A8C466244E7
:1026E0001A620BE0500B00207C0C0020B923BA5377
:1026F000880C0020B6620000002F0DD1039A069BC3
:1027000094469B1A0693089B6344089313007268CF
:10271000944663444CE60700380023B0F0BDC04641
:10272000094A0368002193420CD1084A4368934246
:1027300008D1074A8368934204D1C368054A9B18AD
:102740005942594108007047E2318AB98C42B07F42
:102750005382E0AC72037A4E10B50400FFF7E0FF3D
:10276000002803D0E07DFF384342584110BD0000EF
:1027700070B50C00050018220021200000F004FFB5
:10278000084B2360084B6360084BA360084BE36071
:102790006B68236100232375AB7B6375AB89E3759D
:1027A00070BDC046E2318AB98C42B07F5382E0AC42
:1027B0008EFC85B143688068181A7047F0B5194BD4
:1027C00085B01F78184B0191844619680023BB42DD
:1027D00024DA0D005A1C103102920091BA421BDA21
:1027E000009E300010300090B0890400A88903904A
:1027F000039884420ED1A868B168884204D2614629
:102800000A80019A138003E061460B80019B1A80C5
:10281000002004E00132E1E7029BD8E7062005B082
:10282000F0BDC046100B0020300B002010B505484D
:1028300002F0A2F9041E03D00C22002100F0A4FE35
:10284000200010BD340B002010B504004068FEF7D6
:102850003FFB021E04D103002B21044802F0ECF8D8
:102860002100034802F09BF910BDC046C36200007E
:10287000340B002013B50400FFF7D8FF01A9206036
:10288000FEF79AFF0028F7D1019816BD10B518235E
:102890001400FEF71BFA031E05D1034A2168093014
:1028A000914200D1180010BDB923BA53F0B585B0DC
:1028B00001910500808A1F0002ABDC1C1830160055
:1028C00080B203AA2100FEF797FF002818D12078D4
:1028D00018232A000399FEF71DFA002810D1AB8AAD
:1028E000002B05D1237800203370039B3B6007E069
:1028F000039920781831019AFEF70CFA0028F1D0DC
:1029000005B0F0BD826810B5002A04D11300D721AC
:102910000A4802F091F80A4B0B6003685B684B6051
:1029200043688B605368CB60C368002B01D1013BC7
:1029300000E05B680B61038A8B8210BDC3620000FC
:10294000B923BA5330B50C0089B0002801D1062054
:1029500017E04368A34213D06B46DD1C01AA29008F
:102960008068FEF739FA287802AA0199FFF78EFFEE
:10297000002806D10698431CE9D0FEF7B3FAE4E735
:10298000002009B030BD0000F0B5040089B04868EF
:102990000E00FEF79DFA021E05D1A4210300490096
:1029A0000D4802F049F86B46DF1C01AA3900B068F7
:1029B00002ADFEF711FA38782A000199FFF766FF99
:1029C000002806D1AB6826606360AB8AA060E06037
:1029D000238209B0F0BDC046C3620000F0B5040018
:1029E00089B048680E00FEF773FA021E05D1762101
:1029F0000300FF31164802F01FF86B46DF1C01AAE6
:102A00003900B06802ADFEF7E7F938782A0001997D
:102A1000FFF73CFF002819D1AB6826606360AB8AE2
:102A2000A060E0602382E868FEF778FA0300A06007
:102A300058425841C6B22869431C01D1300005E014
:102A4000FEF77EFAE0600028F8D1013009B0F0BD51
:102A5000C362000030B587B00100040001A8FFF791
:102A6000BDFF050001280DD8039B002B04D01A6977
:102A7000944201D1049A1A612000FEF781FA2000E5
:102A8000FFF7E2FE280007B030BDF7B51D006B462A
:102A90000F001600DC1C036801AA21009868FEF7ED
:102AA0009BF9019933001831C9192A002078019146
:102AB000FEF70CF9FEBD0000F7B5070016001C007C
:102AC0000191002C16D0802325005B009C4200D988
:102AD0001D002B00094A31000198FEF7F7F8002885
:102AE0000BD138002A00054902F0E8FB76190700EF
:102AF000641BE6E72000089B1F80FEBD780B0020CA
:102B000010B501001422002002F0D8FB10BDF0B572
:102B1000160085B00E2504000F00FFF7F1FF32000C
:102B20006D442880A38A183200953900FFF7C4FF4E
:102B3000002804D1E38A2888181A431E984105B05A
:102B4000F0BD70B504000D00FFF7DAFF2900A28A7E
:102B500002F0B4FBE08270BDF0B5160085B0040051
:102B60000F00122201000E25002002F0A7FB320008
:102B70006D442880637C143200953900FFF79CFF78
:102B8000002804D1638A2888181A431E984105B08A
:102B9000F0BD70B504000D0012220100002002F00B
:102BA0008DFB2900627C02F089FB608270BD000011
:102BB000F0B50B27140087B002ABFF18039105AAEC
:102BC000390005000068FEF707F90B4B38781A68E2
:102BD0002301D3189E68039B2200009305993300BC
:102BE000FEF7C2F8071E04D131002000FEF7E2F81C
:102BF0002860380007B0F0BD300B0020F0B50400AD
:102C00001700002689B00191019B9E421CD2002C26
:102C100005D12300220084210D4801F00DFF03ADF2
:102C200021002800FFF7DAFE00280ED12000298AB3
:102C30000830183189B23A00FFF7BAFF002804D1F2
:102C40002B8AEC68F618DFE7002009B0F0BDC0461B
:102C5000D0620000F0B599B0039000920193002972
:102C600002D11A0000999AE01422002108A800F06D
:102C70008BFC009801F02AFF0290002800D185E02B
:102C80001422002108A800F07FFC484B009E1B681E
:102C9000039D0493002E34D00DAF29003800FFF7B8
:102CA0009DFE041E73D13B8A07AAF61A06ABDC1CF4
:102CB0000D9B21009868FEF78FF80799029A18314A
:102CC000079120783B8A9219FEF700F8041E5ED126
:102CD000039BAB420DD01E9B002B06D01B680593B7
:102CE0009D4202D11E9B2A681A602800FFF7B2FE9F
:102CF00005E008AA130007CF07C306CF06C3109D3F
:102D0000C8E7089F002F05D133003200E72128488B
:102D100001F092FE12AC18223100200000F034FCC9
:102D2000244B12937B686360099B05930133A36076
:102D30000A9B5B68E360002D02D101235B4200E047
:102D40006B6823616B461B8820000299A382FFF702
:102D5000F8FE019B049A1B01D3189D6822001823DA
:102D600029000198FDF7D6FF041E10D12900009B11
:102D7000029A18310198FDF7CDFF041E07D12900F2
:102D80000198FEF717F8039B986000E0052402986D
:102D900001F0A8FE052C05D1019A00990398FFF7D0
:102DA0002DFF0400200019B0F0BDC046300B0020FC
:102DB000D0620000B923BA53F0B5844B95B00990A6
:102DC0001878834B00271B780493824B1B681A00EA
:102DD000069301231432834215DA049999420FD0E5
:102DE000069C390161184D681468AC4207D8049CF0
:102DF000BC4204D0947A897B611A090600D5DFB2FF
:102E000001331032E7E7049BBB4203D10023712159
:102E10001A0046E0069A3B01D3180593197B0498E3
:102E2000FEF708F8002800D0CEE007906A4B079A1A
:102E30001B689C5810E0002526692C000395002E85
:102E400000D182E031000FA8FFF7C8FD00283ED076
:102E5000002800D0B8E00C9C002C00D181E0236851
:102E600060680C93FEF730F80028F4D00E2508AB0C
:102E7000ED180DAA2900A068FDF7AEFF2B78BB4224
:102E800012D06068FEF716F80028E4D0504B606856
:102E90001B780893FEF70EF8021ECCD1A92103007F
:102EA00049004E4801F0C8FD494B0FAE21003000EB
:102EB0001D78FEF78FF9002806D12000317B2A000B
:102EC00014310830FFF774FE0028DAD07CE00F23BD
:102ED00008A95B1819000EAAB068FDF77DFF08ABC2
:102EE000DB7BBB421DD1002C00D1340008AB039A20
:102EF0009B8D9B183A4A1288934203D8A64221D050
:102F000001251FE00CAB0093039A089B29002000C9
:102F1000FFF7A0FE00289BD108AB9B8D3400050075
:102F200010E0002C0DD00CAB0093039A089B2900F5
:102F30002000FFF78FFE00288AD10500030004005F
:102F400000E0039B129E039379E7002C00D182E7F7
:102F50000CAB0093039A089B29002000FFF77AFE30
:102F600076E7079B043307931A008023DB009A421D
:102F700000D05BE7049B069A1B01D318059A9B6857
:102F800092680392934204D9FE2123002200FF316C
:102F900087E7059B059A9B7B0121013393733800DA
:102FA000FDF720FF00280FD1099A094B002A02D013
:102FB0001A7809990A701F70FDF710FC002803D1D8
:102FC000084A13680133136015B0F0BD100B0020E0
:102FD000940A0020300B0020800C0020D0620000FA
:102FE000500B0020880C0020F8B507000E000025CB
:102FF0000B4B1B789D420FDA3000FFF7DDFE041EFD
:103000000CD1084B30781B6800011818FFF7D2FB71
:10301000B84203D20135EBE7082000E02000F8BDFC
:10302000100B0020300B002003210A4802680A43DD
:103030000260094802680A4302600849084A094BCD
:103040009B1A03DD043BC858D050FBDC0648804780
:103050000648004724050040540500404067000032
:10306000C0000020BC0500208D300000C100000021
:10307000FEE7FEE7FEE7FEE7034AEFF303803F21AA
:103080000840800080580047000000201D4A10B50D
:1030900013781100012B19D11B4B1B681B0715D18D
:1030A0001A4BE0241A68F0231000184022420BD17A
:1030B000174A12681A4209D1164A174B1A60802221
:1030C000164B12021A6001E03028F1D00B68DBB217
:1030D000012B0DD10C4A1268120709D1F0210B4ABD
:1030E00012680A40402A03D1094A12680A4202D0F3
:1030F00000F0C2FD10BDC1228021D200C9058B5055
:10310000F6E7C046E00F00F0E40F00F0E80F00F033
:10311000EC0F00F0DFFF07C004050040186C004012
:10312000024B1860024B19607047C046EC05002046
:10313000F0050020F0B51E4B15001A6885B00E0092
:10314000002A30D01B4B1B6883422CDD00230B6010
:103150000C3358431418207802F042FC0023070077
:103160000193019BFA6893421BDA3B6803AADB6870
:1031700002A9019898476268029B9A420ED8A168FA
:10318000521893420AD2002D05D022786B60039B1F
:103190002A70AB600C35336801333360019B013317
:1031A000DEE7002001E00120404205B0F0BDC0464E
:1031B000EC050020F0050020F0B5404B89B00392EB
:1031C0001A680C00002A74D03D4B1B68834270DDE6
:1031D0000C23002558430F6813180D6018780293CC
:1031E00002F0FEFB012306005B4204930193F368A7
:1031F0009D421ADA336807AADB6806A928009847B7
:10320000029B069A5B6893420DD8029989685B1805
:1032100005919A4207D2019B013300D101952368A1
:103220000495013323600135E1E70023059323680A
:103230009F4205DA029B3900986802F0CDFE0590A6
:10324000002701252760019B049A934229DC3368FB
:1032500007AADB6806A9019898470C237B43039AC9
:10326000D318002D0AD0029A12781A72069A1A60A0
:10327000079A5A6023680133236003E05A6807996C
:1032800052185A600C237B43039A0025D3185B68BD
:10329000059A9A4201D801370135019B0133019308
:1032A000D1E70C23002022685343039AD3185860B7
:1032B00001E00120404209B0F0BDC046EC0500200D
:1032C000F005002003004068884204D89B68C018BD
:1032D0008842804101E001204042704770B50025DE
:1032E0002C00200002F07CFB002809D003681B6939
:1032F0009847002801D001256D420134E4B2F0E77F
:10330000280070BDF8B50D0017001E0002F068FB24
:10331000041E11D02900FFF7D5FF00280CD1A919F0
:103320002000FFF7CFFF002806D1236832001B687A
:1033300039002800984701E001204042F8BDF8B567
:103340000D0017001E0002F04BFB041E11D02900D7
:10335000FFF7B8FF00280CD1A9192000FFF7B2FF32
:10336000002806D1236832005B683900280098479E
:1033700001E001204042F8BDF0B585B00F00150016
:1033800002F02EFB041E02D101256D4231E039000E
:10339000FFF798FF0028F7D17B191900200001934F
:1033A000FFF790FF051EEFD1019B06009F42EBD275
:1033B000E3689E421DDA236803AADB6802A9300095
:1033C0009847002805D000239B211A000A4801F0E5
:1033D00033FB0298039BC3189F4201D30136E7E7F2
:1033E000019B8342FAD923689B6898470028F5D04F
:1033F000CAE7280005B0F0BDDA62000010B5036826
:1034000083F308884368984710BD10B502F0F3FABB
:103410000120704770470000C36810B519688268C2
:10342000012909D159685C18A04205D140689A6009
:1034300041185960D36009E0012303600D4B1969FD
:103440004361016118610369586103001168012932
:103450000ED15968581882420AD1506841185960F3
:103460005069116901614861D16892688A60D160D0
:10347000180010BDD800002010B5040017291AD973
:10348000012303600C4B41601B6898470B4B0028DD
:1034900011D0DB681A68022A01D09C42F9D99A68D7
:1034A000E360A2609C60A3682000DC60FFF7B4FFCB
:1034B000034B1B68984710BDF4000020D800002083
:1034C000F0000020F8B5002801D1002040E00F23D3
:1034D0001F3098431F4B04001B6898470028F4D006
:1034E0001D4B1B691A68022A29D058681969844241
:1034F0001DD8220020325D69904211D31A19001B99
:103500009E68012750600020176018605C60D360DF
:103510009660F2609A60116155614A612A6103E028
:1035200000221A6029614D6110331C0002E00B007B
:10353000D8E70024094B1B689847200008E02000CA
:1035400002F06AFA431CF4D02100FFF795FFC7E7A9
:10355000F8BDC046F4000020D8000020F000002094
:1035600010B5041E0BD0064B1B689847002806D0E8
:1035700020001038FFF750FF024B1B68984710BD22
:10358000F4000020F000002003008218934202D0D3
:1035900019700133FAE77047C9B203788B4204D03F
:1035A000002B01D00130F8E7180070470023CA5CF7
:1035B000C2540133002AFAD1704703001A78002A56
:1035C00001D00133FAE7181A704770B506000024DD
:1035D000A24207D0355D0B5DE81A04D10134002DFD
:1035E000F6D100E0002070BD1FB50400081E08D011
:1035F0006A460E23082101F0C9FE6A46002801D15F
:1036000005E00A002100044802F002F901E001206F
:10361000404204B010BDC046F800002073B514004D
:103620000A25012820D10E681049300002F0D0FB95
:10363000002803D108220E48019208E00D4930000D
:1036400002F0C6FB00280FD108220B480192002C83
:1036500006D0010001AA200001F084FE050003E06D
:103660002100FFF791FF2500280076BDE6620000EB
:10367000F4050020EB620000FC05002010B50749AE
:103680000B68002B03D14A680433002A03D00822B8
:1036900002F06BFB0023180010BDC046FC050020A3
:1036A00010B507490B68002B03D14A680433002A80
:1036B00003D0082202F059FB0023180010BDC046B9
:1036C000F405002070B5094D04000100084E0822E1
:1036D0002800002C03D1FFF757FF210002E002F081
:1036E00044FB29003000FFF77FFF70BDFC05002080
:1036F000EB62000070B5094D04000100084E08227D
:103700002800002C03D1FFF73FFF210002E002F068
:103710002CFB29003000FFF767FF70BDF405002087
:10372000E6620000F8B5170004000D000026BE4256
:1037300014DA2878202322006968FFF7E3FD0028C7
:1037400003D1074B22689A4204D02022FF21200097
:10375000FFF71AFF013620340835E8E7F8BDC04608
:103760003CB8F39610B5024801F0BEFD10BDC0464E
:10377000F80000201FB5040002F034F803AB0093FA
:10378000082223000021084802F000F9002803D194
:10379000039B0130082B05D0082200212000FFF7F1
:1037A000F3FE002004B010BDF062000010B501006F
:1037B0000822034802F0FFF8002800D0022010BDC4
:1037C000F062000010B5024802F0C4F810BDC04617
:1037D000F062000010B5010004000822074802F062
:1037E000B7FA002809D008222100054802F0B0FAF3
:1037F000431E984101234042184310BDA00C0020F5
:10380000C00C0020074B0A0019680C2310B5584360
:103810000B681B1818785968FFF7AEFD431E9841D6
:1038200010BDC046100A0020F7B51A4B01921B6864
:1038300000261A680C2358434B431518D418A36864
:10384000AA68934221D20023C7211A00124801F02E
:10385000F3F88022019BD2009B1B1F00934201D9E9
:103860008027FF006B682878F1180C4A3B00FFF7AF
:1038700049FD00280DD163682078F118074A3B0004
:10388000FFF75DFD002804D1F619019B9E42E0D3AD
:103890000020FEBD100A0020FE6200000406002089
:1038A000F0B500245C4B85B05B6801941B0A029361
:1038B000594B019A1B689A4200D3A9E0574B584ACA
:1038C0001B6812685F687E78002A07D00C20544A73
:1038D000604312680025944622001DE0187A150006
:1038E00084460C20597A4843614507DA1D68013146
:1038F0002D18AD680C3052190125F5E7002DE5D0E3
:1039000047490A60E2E71968091889680C306918A4
:10391000614505D80D000132111B03919642F2DC7E
:10392000029A94426EDB3A78A61912190092B242BA
:1039300003D10023F9211A0006E0587A009B834244
:1039400005D10023FA211A00364801F075F88642A5
:1039500003D10023FB211A00F6E72F4F3B79002B00
:103960001DD12900FFF74EFF002846D12B4B2A001E
:103970001B683000597AFFF757FF00283DD101221C
:103980002302134338007B60FFF710FF002834D177
:1039900029003000FFF736FF00282ED102E0012B6E
:1039A00017D1F5E72A0031000098FFF73DFF002806
:1039B00023D102221848230213434360FFF7F6FE87
:1039C00000281AD129000098FFF71CFF002814D105
:1039D00002E0022B16D1F5E7104B2A001B68009974
:1039E000587AFFF721FF002807D10B48631C1B0200
:1039F0004360FFF7DBFE002804D0002350211A00AB
:103A0000FF31A1E7019B5B190193039BE4184FE78A
:103A1000002005B0F0BDC046080A0020100A0020B2
:103A2000040A0020FE620000F0B5534E534D8BB0E7
:103A3000306028000291FFF79DFE00281FD10C2363
:103A4000316806AE48680C6802785A43A2181478A8
:103A50005268347007924278494C53430A682000F8
:103A6000D3181A78310032725B680222F360FFF7D4
:103A700059FE2368434A934206D0002309E0FFF72A
:103A80000FFF0028DBD073E02189A388CB18E16801
:103A90005B18216A914206D1218DA2888A18E16AB9
:103AA00052189A4201D82B6000E02A60002304A833
:103AB0006B60FFF7E3FD071E08D104A8FFF78AFE3D
:103AC0000500431C1AD13800FFF7FCFD04A8FFF7DE
:103AD000E7FD071E08D104A8FFF77CFE0500431C84
:103AE0000CD13800FFF706FE23680025013305D10D
:103AF000236A0135013301D103243AE080246400B4
:103B0000200000F0E3FF031E30D0E9001C4F7218C4
:103B10006801715C0094C019526800F039F8041E05
:103B2000EAD1002D02D0012D03D00AE0029B1F60D4
:103B30000EE0FFF7B5FE00281AD1134B029A13606E
:103B400006E0DC2103000200FF31104800F074FFA2
:103B5000029A33781371736803931300039A9A607F
:103B6000FFF730FE0020FFF7ADFD02E0062400E085
:103B7000040020000BB0F0BD100A0020080A00204D
:103B80008C0C00203CB8F396AC0C0020FE620000C8
:103B9000F0B51C000369D1B00500029104929B07A7
:103BA00002D40124644264E0002610A800F07EF8EC
:103BB000002110A800F080F82B89EA689B18019377
:103BC000019BB34215D9019B569F9B1B9F4200D975
:103BD0001F00049B2200991902983B00FFF792FBFB
:103BE000002845D13A00210010A800F039FDF6194F
:103BF000E6E7002408A910A800F038FDEB682E893C
:103C00000194F618AB889B190593059B9E4218D228
:103C1000049B07AFF31803933A0004230399029817
:103C2000FFF770FB002823D13B78012B05D17B885F
:103C3000202BB6D1039B043301937B880433F61801
:103C4000E3E72B699B0714D5019B002BA9D0202308
:103C500010AA01990298FFF755FB041E09D12022F2
:103C600010A908A802F074F8441EA041444200E0E4
:103C70000400200051B0F0BD054A064900238A42E5
:103C800004D0C858D0500433A82BFAD17047C0468E
:103C90000000002000000000034B1030800019508D
:103CA000BFF35F8F7047C0460000002010B56C2244
:103CB0000021FFF769FC10BD0023036043609942B7
:103CC0000FD1114B8360114BC360114B0361114B3A
:103CD0004361114B8361114BC361114B0362114B63
:103CE0000EE0114B8360114BC360114B0361114B0C
:103CF0004361114B8361114BC361114B0362114B43
:103D0000436281667047C04667E6096A85AE67BB55
:103D100072F36E3C3AF54FA57F520E518C68059BAD
:103D2000ABD9831F19CDE05BD89E05C107D57C3682
:103D300017DD703039590EF7310BC0FF1115586877
:103D4000A78FF964A44FFABE0023F0B5D5B00B904D
:103D50000B9AD2189268019201980CAA98500433D9
:103D6000202BF5D100200B781A064B781B04134347
:103D7000CA7813438A7804311202134314AA835079
:103D800004304028EFD1139B0E9F0793109B15AE74
:103D90000693119B0593129B04930C9B03930D9B1D
:103DA00002930F9B0193CB4B1D1D443308930623B5
:103DB0000B22069C0D20DC41069B0399D3416340F6
:103DC000069C0E32D441059A5C40049B5340069AEF
:103DD0001340049A5A40A3182A1F1268039C9B1888
:103DE000321F12689B18079A9B18019A9446022268
:103DF000D141039A9C44C24151401622D441039AB6
:103E00006140029C03981443029A3C4002401443D0
:103E10000C19E41832682B6805999818049B059AC8
:103E2000C018069B5A4063461A4051404218062368
:103E300060460B21D8416346CB4161465840192367
:103E4000D94148401318DA190492210002220D20AA
:103E5000D1412200C241200051401622D0414140B0
:103E60000398029A20431040039A0B2722401043E4
:103E70000818C01872686B6899186246059BC918C3
:103E8000069B5340049A1340069A5340CA180623CF
:103E90000499D941049BFB4159401923049FDF41F8
:103EA00079405318029A07009A18059202220D21B0
:103EB000D7410200CA41010057401622D1414F406C
:103EC0002100039A01431140020022401143791856
:103ED000CB180293B268AB6804999B18069A9B189A
:103EE00062464A4005990A4061464A409F180623A7
:103EF0000B21059ADA41059BCB415340059A0E31BF
:103F0000CA415A40039BBA18D31803930223029F55
:103F10000C39DF41029BCB417B40029F0931CF41ED
:103F20007B40070002990F4327403900029F07405A
:103F30000F43DB199B18F168EA68049F5218059932
:103F400062444F4003990F4004994F400621D21913
:103F5000039FCF41BC46039F0531CF416146794065
:103F60008C461921039FCF4161464F40D219A118B9
:103F700007911F0002211C00CF410B31CC4167404B
:103F80001C000931CC416740029C02991C4304404B
:103F9000A4461C000C4061460C433C19A218019237
:103FA00031692A69079F5218049954180399059A90
:103FB0004A4007990A4005994A400621A218079CE1
:103FC000CF410531CC416740079C0E31CC417C404C
:103FD0001219811804910221019C0198CC410B31E6
:103FE000C841444001980931C841019F44400299A9
:103FF00001981F430F4018403843201887187169F3
:104000006A69049C5218059950180799039A4A4006
:1040100004990A4003994A40062182180498CC4129
:104020000531C841444004980E31C84102996040AE
:10403000121889180591380002210D24C841390051
:10404000E141484039000934E141019C484001996F
:104050003C431C403940214341188A180292B169FF
:10406000AA690498521803990B245118079A20350D
:104070004240059820360240079842408A1806219F
:104080000598C8410599E141484005990E34E14140
:10409000414052189B18069302230D200299D941E2
:1040A000029BC3415940029B0930C34102985940C9
:1040B000019B38431840029B3B400343CB189B189D
:1040C0000393089BAB4200D071E61023014E14AD60
:1040D0000A9301E04863000011231321AA6B68686A
:1040E000DA41AB6B1224CB415A40AB6B2036990AB4
:1040F0004A406B6A29685918521807230100D941B0
:104100000300E3414B40C1084B40D31809930623F9
:104110000B22069C0399DC41069BD3415C40069B25
:104120000E32D341059A5C40049B5340069A1340DB
:10413000049A5340E418336A0D22E418099B2B6457
:10414000E418079BE418019B9C46A444634607932C
:104150000223D941039BD34159401623039ADA41E4
:10416000029B5140039A13433B409C46029A039B97
:104170001A4063461A438A18131901931123132214
:10418000EC6B1221DC41EB6BD3415C40EB6B9A0A88
:10419000AB6A5440C218A3180722AC680598D441F2
:1041A000AA68CA41716A54408C46AA680799D20825
:1041B00054401C19069B049A5840079B62441840BF
:1041C000059B6C6443401019181806230B22D94133
:1041D000079BD3415940079B0E32D34159400918E0
:1041E000CB1908930223019F0C3ADF41019B0198F0
:1041F000D3417B40019F0932D741039A7B40024360
:104200000298039F0240019807401743DF197B186B
:1042100004931123132209981221D841099BD341F9
:104220005840099B9A0A5040AB68EA6A9A1883186A
:104230000722E868D041EA68CA415040EA68069916
:10424000D20850401818079BB76A5940BC46089BD3
:10425000059A1940069B62444B40111859180623D1
:104260000B22089FA864DF41089BD3415F40089B55
:104270000E32D3415F40029B7F18FB180593022347
:104280000D21049ADA41049BCB415A40049B093129
:10429000CB415A409446049B0199049A1943039BCD
:1042A0001940019B13400B436344DB190293270021
:1042B00011231322DF412300D341296BEA687B409D
:1042C000A40A57186340DC19072312222F69DF4123
:1042D0002B69D3415F402B69079ADB085F40089B3D
:1042E000E7195A40059B079C1A405440F26A069B06
:1042F00094466344D919062362180B24EF64059988
:10430000D941059BE34159401923059CDC41039B9E
:1043100061408918CB18069302230D24029ADA41D2
:10432000029BE3415A401623029CDC41049B6240FD
:10433000029C2343019C23409C46049C029B1C40FE
:1043400063462343D3185B18039301001123132200
:10435000D9410300D3412A694B40696B800A511847
:1043600043405818072312226969D9416B69D34128
:1043700059406B69059ADB085940089B4118534026
:10438000069A29651340089A5340326B8818079A99
:104390008418181906230B24069ADA41069BE34178
:1043A0005340069A0E34E2415340019A1B1894463A
:1043B0009C446246079202220D20039CD441039A3A
:1043C000C2416240039C0930C44162409446039854
:1043D000029C039A0443049804400298104004434A
:1043E0006444E31801933A0011231320DA413B009F
:1043F000C34168695340AA6BBF0A7B401718DF1995
:1044000007231220AA69059CDA41AB69C3415340D6
:10441000AA69D2085340069AFB185440079A6B6564
:104420001440059A5440726B9F18089ABF180622D0
:10443000E0190B24079FD741079AE2415740079A9A
:104440000E34E2415740049A3C1812190492022299
:104450000D20019FD741019AC2417A40019F093046
:10446000C74101987A40039F94460743029807404A
:104470000398019A104007431122080067443F192E
:10448000D04113240A00E241890A42404A40A86907
:10449000E96BEC690918511807221220D441EA6926
:1044A000C2415440EA69D20854400C19079A06994F
:1044B000AC655140049A1140069A5140B26BA01865
:1044C000059A0B248218881806220499D141049A6F
:1044D000E24151401922049CD441029A61400918DA
:1044E00052180592380002220D24D0413A00E241D0
:1044F00050403A000934E2415040019A039C3A434B
:104500002240019C3C40224382185218180011217D
:104510001324C8411900E1414140E8699B0A8446DF
:104520005940099B02922A6A6344CB181000072164
:10453000C8411100013CE141D208414051405918A5
:10454000F36BE965CA18069B2035D018049A079BBF
:104550005340059A1340079A05995340C218062301
:104560000B20D941059BC3414B4005990E30C141F9
:104570004B409B18039A0299D21806920222D1410D
:10458000029A0C38C2415140029A0930C241029845
:104590005140019A38431040029A3A4002438A1827
:1045A000D31803930A9B08330A93402B00D093E55A
:1045B000079B0E971393069B1093059B1193049BE7
:1045C0001293039B0C93029B0D93019B0F9300236B
:1045D0000B9AD11888680CAA8446D25804330192E9
:1045E00062448A60202BF3D155B0F0BDF7B5036863
:1045F00005003F2018409B180E0014002B609A42C3
:1046000002D96B6801336B60002811D040273F1A34
:10461000A7421CD82B002833310018183A00019308
:1046200001F0A3FB01992800FFF78EFBF619E41BAC
:104630002700E11B71183F2F04D92800FFF784FBE6
:10464000403FF6E70020A3099B01F618E41A002C6E
:1046500005D0283528182200310001F086FBF7BD6F
:1046600010B5002A01D0FFF7C1FF10BD73B50400DB
:104670006E46006863680D00DA00430F13431A0E9C
:1046800032701A0C72701A0AB2703F22C100F370B5
:104690000B0E33710B0C73710B0AB371F171024085
:1046A0003823372A00D978239A1A32492000FFF795
:1046B000D7FF082269462000FFF798FFA3681B0E6A
:1046C0002B70A3681B0C6B70A3681B0AAB70237A5A
:1046D000EB70E3681B0E2B71E3681B0C6B71E368D6
:1046E0001B0AAB71237BEB7123691B0E2B722369B1
:1046F0001B0C6B7223691B0AAB72237CEB72636920
:104700001B0E2B7363691B0C6B7363691B0AAB7302
:10471000237DEB73A3691B0E2B74A3691B0C6B74B5
:10472000A3691B0AAB74237EEB74E3691B0E2B7524
:10473000E3691B0C6B75E3691B0AAB75237FEB7593
:10474000236A1B0E2B76236A1B0C6B76236A1B0ACB
:10475000AB76236AEB76A36E002B0AD1636A1B0E3D
:104760002B77636A1B0C6B77636A1B0AAB77636AF0
:10477000EB7773BD07630000F8B596263603114A40
:1047800013680133136000F059F8050000F0A0FC35
:10479000070000F0E5FB0400380000F007F92300F3
:1047A000844200D903000020652B04D91800B342CD
:1047B00001D99620000301F095FA280000F044F892
:1047C000DDE7C0461C0D00201FB540230393084BB6
:1047D000084A029301235B4201930133FF330093A4
:1047E00005490023054800F0F5FB05B000BDC046B3
:1047F000200D00207947000048640000CC0C002008
:1048000010B500F045F8002805D000236D211A00EE
:10481000014800F011F910BD4D64000010B50120F1
:1048200000F05CFC10BD000010B500F0CBFA802257
:10483000014B52055A6010BD00ED00E0EFF310800F
:1048400072B6012318407047002800D162B6704745
:10485000EFF3108001231840704770B50B000C0077
:1048600005000022403C1C3B083904C38B42FCD1AC
:10487000200000F074FC80235B04E3636B6920007C
:10488000A363AB69236270BD10B5FFF79DFF10BD38
:10489000F8B5EFF305830720002B4FD12849F830F6
:1048A0001A00C032920001335050202BF8D105205D
:1048B00024494042FFF7F0F9022023494042FFF724
:1048C000EBF9012021494042FFF7E6F90E20204D87
:1048D00040422900FFF7E0F90D2029004042FFF790
:1048E000DBF90D2029004042FFF7D6F9002460B221
:1048F00029000134FFF7D0F91A2CF8D1154D01F039
:104900007DF8154C2E6A3440C02636043443802688
:104910002C62EC69F6052402240A3443EC6100F0B1
:1049200013FCEFF3148501242C4003D1FFF74CFF57
:10493000200003E0094FBC4600DF0020F8BDC04660
:1049400000E100E071510000B1510000EF510000A2
:104950000152000000ED00E0FFFF00FF8948000069
:1049600070B500F0B5FB0500FFF768FF0E4A14684C
:10497000002C0FD02369EB1A0BD46369A169002BBB
:1049800001D0996100E05160A26913600023A36126
:1049900000E00024FFF758FF002C04D02100E0685D
:1049A00000F020F8E0E770BD1001002010B5040011
:1049B000FFF74EFF021E04D10300BA21074800F0A2
:1049C0003BF8074B1B68002B05D01869001BC3433D
:1049D000DB17184001E00120404210BD5264000086
:1049E00010010020F7B50D000400FFF727FF2B781A
:1049F0000600002B02D0FFF727FF1BE001272F70D6
:104A0000A268AB60156020680835A5600193051E9B
:104A100008D0837B019D022B02D100F047FA3D00B4
:104A2000019B23603000FFF70FFF002D02D0002014
:104A300000F0E6F9F7BD000070B50D000400FFF7C7
:104A4000FDFE034B1D60034B1C6001F075F9C04671
:104A5000280E0020240E0020024B10B55A685B6817
:104A600001F06AF900ED00E0094B10B51B68002B5E
:104A70000CD001210748494200F00EF9002805D06A
:104A8000002322211A000448FFF7D6FF10BDC046BC
:104A9000200E0020180A00205F640000084B10B5AB
:104AA0001B68002B0AD0074800F0ACF8002805D09E
:104AB00000232D211A000448FFF7BEFF10BDC04699
:104AC000200E0020180A00205F64000010B50400CA
:104AD000FFF7CAFF2000FEF7F5FC0400FFF7DEFF3A
:104AE000200010BD10B50400FFF7BEFF2000FEF748
:104AF00037FDFFF7D3FF10BD70B50D000400FFF7C1
:104B0000B3FF2900200001F039F90400FFF7C6FFC8
:104B1000200070BD70B503252C00002828D0002B84
:104B200026D0002924DD002A22DD01342B421FD1AA
:104B300015401600002D01D0641BA6180260049ACF
:104B40001C0082610A0081604160C3604361012AE8
:104B500004D0A5192560013A2C00F8E7002401399A
:104B600071435C50034B04615A6810601030586008
:104B7000200070BD1801002070B50400051E0CD087
:104B80000025FFF75BFEA368AB4204D06569013BDB
:104B90002A68A3606261FFF757FE280070BDF8B570
:104BA000032304000D001E0000281FD000291DD083
:104BB00001680B4001D0C91A0431E0680326854220
:104BC00014D363684B431B189D420FD2281A01F07F
:104BD00089FA0F1E0AD1FFF731FE63693E002B6090
:104BE000A36865610133A360FFF72EFE3000F8BDB6
:104BF0000323002804D000234371C3808360036033
:104C000018007047F8B5224B04001B680920002BE0
:104C10003CD0002C39D000F0EDF8E38805000520E9
:104C2000002B33D0A268954230D1013B9BB2E38088
:104C3000002B28D1FFF702FE63796A7B07009A42B6
:104C400003D06B73280000F0B1F92668002E0ED057
:104C5000F269002A04D1130068210E48FFF7ECFE28
:104C6000300000F023F90123E380737B6371A660B9
:104C700000F096F904003800FFF7E6FDA54202D0E7
:104C8000200000F0BDF8002000E00320F8BDC04681
:104C9000200E002069640000F7B5354B06001B6844
:104CA00001910920002B61D00638002E5ED0FFF75D
:104CB000C5FD070000F09EF8F5880400002D09D11D
:104CC000B060437B380073710123F380FFF7BCFDB4
:104CD00028004BE0B368984206D101353800F580D2
:104CE000FFF7B2FD002041E0019A002A04D138000C
:104CF000FFF7AAFD062039E0427B597B914203D998
:104D00005A73B06800F052F93168002911D00A00D6
:104D10000023657B507BA84205D8D06C1300002887
:104D200003D00200F6E7002B03D0DA6CE264DC6407
:104D300001E0E16434600425E37B01992B43E373D4
:104D4000E661200000F074F83800FFF77DFD0020D8
:104D500000F056F8FFF772FDE37BAB43E373FFF718
:104D600073FDB36800209C4200D00630FEBDC046F3
:104D7000200E002070B5837B04000220012B1DD182
:104D8000FFF75CFD0E4A1368002B10D0657B597B42
:104D90008D4201D35B6CF7E79A6C6364A2649A6CF2
:104DA000146044349C64FFF74FFD002006E0636408
:104DB0005368A3641C6044345460F4E770BDC0467B
:104DC00020010020084B10B51A6882420BD0C36B3B
:104DD00006490133C363064B0C681868936B08607F
:104DE000C3181B1B936310BD2C0E0020300E002037
:104DF000380E0020014B18687047C0462C0E00206A
:104E000070B50400FFF71AFD0500002C01D1064B18
:104E10001C68064B1B689C4202D02000FFF704FD73
:104E20002800FFF711FD70BD200100202C0E00208E
:104E3000436C70B5826C04000D00002B01D09A64A5
:104E400001E018494A60A26C13600223A37300F0CA
:104E50003FF940196063144A6B1C05D10121E37BC3
:104E60000B43E37300230CE001251368002B08D0EB
:104E7000D97B29420CD1596B091A002908DC5B6CDB
:104E8000F4E763645368A3641C604434546006E030
:104E90009A6C6364A2649A6C146044349C6400202D
:104EA00070BDC046200100202801002010B5837B82
:104EB000022B03D00023CE211A0007E0C369002B88
:104EC00016D01A68002A04D11300D3211348FFF723
:104ED000B3FD904202D1C26C1A6006E0D36C9842D6
:104EE00001D01A00FAE7C36CD3640023C364C36122
:104EF000002301224363C37B82739343C373436CD8
:104F0000826C002B01D09A6401E005494A60826CF2
:104F10001360FFF72FFF002010BDC046746400002F
:104F200028010020F8B500F0D3F80500FFF786FC53
:104F300001260A4B0400186800280AD0C37B3342BC
:104F400007D1436B476CEB1A03D4FFF7AFFF380070
:104F5000F2E72000FFF778FCF8BDC04628010020EA
:104F600010B50400FFF774FC021E05D118210300E0
:104F7000FF310948FFF760FD084B1B68002B08D084
:104F8000DA7BD20705D4586B001BC343DB171840EC
:104F900001E00120404210BD74640000280100209F
:104FA000014B18687047C0462001002010B5837B74
:104FB000012B0BD1436C826C002B01D09A6401E071
:104FC00003494A60826C1360FFF7D4FE10BDC046EF
:104FD00020010020F7B504001600009308AB1B78F1
:104FE00050220D00019300210BAB1F88FEF7CCFA75
:104FF000009B6661A361FFF721FC214B1E78721CA8
:105000001A70FFF721FC6B461B792673637301232B
:105010002600A3730023203625616363300000F06F
:1050200035F900282AD1099B013302D10023154A02
:1050300007E0099B3000636200F030F90028F5D0EA
:105040001CE0BB4204DA0A98990042500133F8E7A9
:105050000A9ABB00D51829003A002000FFF7FDFB93
:1050600000232364084B20605A6865602781146020
:105070002200200040325A60FFF77CFEFEBDC04691
:10508000340E0020EFBEADDE30010020F0B50E681A
:105090004F680025F423840AA4197D4180059B00F4
:1050A000800D58438B6814605560C018064B9060A3
:1050B000984208DD01260027A4197D41034B1460A6
:1050C0005560C0189060F0BD3F420F00C0BDF0FFBA
:1050D000014B18687047C046380E0020F8B5041E12
:1050E00005DA002357211A001448FFF7A5FC002811
:1050F00023D0FFF7A3FB124D06002B68E4182C60A9
:10510000634010D50F4F39003B680831E41A0A009C
:105110002000FFF7BBFF390018310A002000FFF71D
:10512000B5FF2B683B603000FFF78EFBFFF718FCE4
:10513000FFF7F8FE0020FFF763FEF8BD7F64000074
:10514000380E0020280A0020684680F30988394874
:105150000078023080F31488BFF36F8F70470346E6
:10516000F0C044464D4656465F46F0C0F0CB70470F
:10517000EFF30980816902390978002908D10169B2
:105180008C460FC800B5E047EFF3098307C300BDA5
:1051900010B5294A1268914209D8284C89006458F0
:1051A000A6461FC8A446F047EFF309840FC410BDFC
:1051B000234B1A68234B1968914200D17047EFF3D3
:1051C00009802038F0C044464D4656465F46F0C040
:1051D000203808601A6010681030F0C8A046A94650
:1051E000B246BB4680F309882038F0C8704710B536
:1051F000FFF714FB10BD23B41348D621134D2847E5
:10520000704604210842EFF3088C01D0EFF3098CBB
:105210004046494652465B460FB56346F8B4684679
:10522000FFF71AFCF8BC0FBC8046894692469B46A5
:1052300000BD0000140A002000000000FCFFFFFF7A
:10524000200100202C0E002089640000394A000053
:10525000054B10B51868002804D0012103484942C5
:10526000FFF71AFD10BDC046200E0020400E0020A2
:10527000044B10B51868002802D00348FFF7C2FCA1
:1052800010BDC046200E0020400E002010B5142294
:105290000021FEF779F9002010BD000010B50400D0
:1052A000FFF7D6FF002805D1034B1A681C60226166
:1052B000FFF7DEFF10BDC046580A002070B50C0095
:1052C000074D631A9A4209DD2378060A73405B0092
:1052D0005B5B0002584080B20134F2E770BDC0460B
:1052E0009464000000207047024B1A680260186046
:1052F000002070475C0A002070B50500064B1C6852
:10530000002C07D06168280000F062FD002801D061
:105310002468F5E7200070BD5C0A0020F7B50A4D4F
:105320000E001700290001AA00F05DFD00240028EE
:1053300008D0A300F85001AA2900002000F053FD76
:105340000134F4E73460FEBDB462000010B514000F
:10535000FFF7E4FF03000020834202D12068FFF73B
:10536000CBFF10BD70B5140005000E0000F00CFE60
:105370002368984201DD032007E03100280000F097
:10538000B1FD0028F7DB2060002070BD70B5CD1C9A
:10539000140000229D4204DA2200012300F05CFD8B
:1053A0002200100070BD30B58BB002AA0C0001A91C
:1053B000FFF7CCFF02000320002A05D0019BD5682F
:1053C000581E220003A9A8470BB030BD30B58BB0E2
:1053D00000280CD002AA01A9FFF7B8FF03000320A0
:1053E000002B13D01B69181E10D098470EE0040044
:1053F000074B1D68002D08D02B69002B03D0984760
:10540000002C00D104002D68F4E720000BB030BD63
:105410005C0A0020F7B50700080016000191FEF7AE
:10542000CCF804003000FEF7C8F8231805001F2B45
:1054300001DD1F24241A220001993C19380000F0D4
:1054400094FC2A003100200000F08FFC00236355FB
:10545000F7BD000010B50400A0B0C06800F05AFA13
:105460000023104AE360A1686846FFF7D3FFA168F4
:1054700010A80D4AFFF7CEFF6946A06800F072FA47
:10548000002803D0062801D0022009E0A16810A856
:1054900000F068FA041EF7D1684600F05BFA2000BD
:1054A00020B010BD986600009D660000F0B5DDB02C
:1054B000009313000A00B02104AE0500490030003B
:1054C00000F016F9AF2303245B0098421FD8553B28
:1054D000FF3B3354EB68471C002B01D0039307E0DC
:1054E00003AA0621A86800F00DFA022400280ED1B4
:1054F0003A003100039800F01DFA0400601E844158
:10550000EB686400002B02D1039800F003FA20003E
:105510005DB0F0BD10B504000320002A02D02000C9
:10552000FFF7C4FF10BD000010B5C36888B00400C9
:10553000002B05D00023AA211A000948FFF77CFAA6
:105540008168084A6846FFF765FF22000A210C328D
:10555000684600F0D7F9002800D0022008B010BD3E
:10556000A26600009D660000826810B50323002A31
:1055700004D0034B436000F019F90023180010BD5C
:1055800038010020836810B50324002B05D00024C7
:10559000034BC460436000F01FF9200010BDC046FB
:1055A00038010020F7B50D001968070016001C002F
:1055B00000F0C8F9002804DA0023012023604042EB
:1055C00022E001AB2A003100380000F0ABF90028DE
:1055D000F2DB019B002BEFD09E4201D1013E0196F0
:1055E0000026019B0A21EE542800FDF7D5FFB042AA
:1055F00001D0067003E001002800FDF7CDFF23680D
:10560000401B01331B182360FEBD70B5DCB00D00DC
:10561000160001216A46806800F074F9022400280F
:105620001BD10190B02201AB520004A90098FFF7F2
:10563000B9FF019C002C0DD00028F3DB03AA02A9BE
:1056400004A800F00DF80028ECD13200039902986C
:10565000A847E7E7009800F05DF920005CB070BD56
:10566000F0B5002405000127204E14602B78002B94
:1056700036D0032C2AD8200000F09AFC020D131E0D
:10568000093BDBB2172B23D83000D8400300380089
:1056900098431BD01CE03D2B0ED1002302242B701D
:1056A00014E0093BDBB2172B15D83000D8400300BB
:1056B000380098430AD00EE0093BDBB2172B05D81F
:1056C0003000D84003003800984307D00135CDE7BB
:1056D0000D600124FAE715600324F7E72870F5E769
:1056E0000123023CE0B283428041F0BD1300800000
:1056F000F0B585B00293536804001800039101933C
:10570000FDF75BFF06000298FDF757FF0A9D0700B3
:10571000002D03D02800FDF750FF0500F3195B1999
:10572000039A013393421DDA32000199200000F000
:105730001CFB731C01932F23A355019B3A00E01817
:10574000029900F012FB019B2A00FF183D237E1CEA
:10575000E355A0190A9900F008FB0023AD19635521
:10576000280001E00120404205B0F0BD10B5FFF770
:105770001AFE10BD70B50D001168140000F028FB72
:10578000002811D16168002D03D1002903D1012324
:1057900002E0002902D10023A36005E0280000F008
:1057A00017FB0028F7D1F2E770BD0000094A10B5D9
:1057B000146800232100002902D00B000968FAE7D1
:1057C000002B02D10460106002E01A6802601860C9
:1057D00010BDC046600A0020014B18607047C046EB
:1057E0009C0F0020084B10B51C68002C07D0636884
:1057F00020001B680022054998472468F5E720002F
:10580000FFF7E4FD10BDC046600A00206D570000A0
:10581000F0B5204B99B01C680290009103920A20C9
:10582000002C35D0029B5F683800FDF7C6FE0600ED
:105830000098FDF7C2FE3318013301900320402B7E
:1058400026D808AD32003900280000F08EFA2F2348
:10585000771CAB550026019A0099E81900F085FAEB
:10586000019B0595EB18DE55039B0796069363682D
:1058700005AA1B68084920009847079B3000012BA8
:1058800006D06368009A9D680299039B2000A84790
:1058900019B0F0BD9C0F002075570000034B1A781B
:1058A000002A01D101321A7000207047640A0020DA
:1058B00008600020034B4A605A68C86011600C31D0
:1058C000596070474801002000207047022070474F
:1058D000022070470220704703000020054A18602C
:1058E0005A60054A58619A60044ADA60044A1A61AB
:1058F0007047C046CD580000C9580000D15800007C
:10590000D558000010B5024B1B681B68984710BDA6
:10591000680A002010B5024B1B685B68984710BDF1
:10592000680A002010B5024C2468A468A04710BD86
:10593000680A002010B5024B1B68DB68984710BD51
:10594000680A002010B5024B1B681B69984710BD00
:10595000680A002010B5024B1B68DB69984710BD30
:10596000680A002010B5024B1B681B6A984710BDDF
:10597000680A002004490B230A68002A01D1130099
:10598000086018007047C046680A002073B515000B
:10599000012101AA1E00FFF7B5FF041E06D1069BD8
:1059A000320029000198FFF7BDFF04000198FFF7BE
:1059B000B1FF200076BD73B50D0016000A2101AAC3
:1059C000FFF7A0FF041E05D1320029000198FFF760
:1059D000B1FF04000198FFF79DFF200076BD000095
:1059E0000023984200D1014B18007047B0660000B8
:1059F00001204042704710B500F09EF910B500201C
:105A000000F00AF80020FFF7F3FF05210148FDF739
:105A100087FB10BD500100200D4910B50A68002811
:105A200007DA13180B48834208D200F05FFB1623F5
:105A300009E0094B9B1A984202DC13180B6005E041
:105A400000F054FB0C23012203605242100010BDF1
:105A50008C010020A00F0020803E00208021074BF9
:105A6000074AC9005058012805D0013B002BF9D145
:105A70000120404200E000207047C046A08601009F
:105A800000E00140F8B50700FFF7E8FF00281ED14D
:105A9000EFF3108572B602220E4C0F4EA35913433A
:105AA000A351FFF7DBFF002807D1A123DB00E7505C
:105AB000FFF7D4FF431E984100E001200222A359C2
:105AC00040429343A351002D03D162B601E001206F
:105AD0004042F8BD00E0014004050000002070478E
